{
  "_format": "hh-sol-artifact-1",
  "contractName": "Assessment",
  "sourceName": "contracts/Assessment.sol",
  "abi": [
    {
      "anonymous": false,
      "inputs": [
        {
          "indexed": true,
          "internalType": "address",
          "name": "account",
          "type": "address"
        },
        {
          "indexed": false,
          "internalType": "uint256",
          "name": "amount",
          "type": "uint256"
        }
      ],
      "name": "Deposit",
      "type": "event"
    },
    {
      "anonymous": false,
      "inputs": [
        {
          "indexed": true,
          "internalType": "address",
          "name": "account",
          "type": "address"
        },
        {
          "indexed": false,
          "internalType": "string",
          "name": "newName",
          "type": "string"
        }
      ],
      "name": "NameChanged",
      "type": "event"
    },
    {
      "anonymous": false,
      "inputs": [
        {
          "indexed": true,
          "internalType": "address",
          "name": "account",
          "type": "address"
        },
        {
          "indexed": false,
          "internalType": "uint256",
          "name": "amount",
          "type": "uint256"
        }
      ],
      "name": "Withdraw",
      "type": "event"
    },
    {
      "inputs": [],
      "name": "deposit",
      "outputs": [],
      "stateMutability": "payable",
      "type": "function"
    },
    {
      "inputs": [
        {
          "internalType": "address",
          "name": "account",
          "type": "address"
        }
      ],
      "name": "getAccountName",
      "outputs": [
        {
          "internalType": "string",
          "name": "",
          "type": "string"
        }
      ],
      "stateMutability": "view",
      "type": "function"
    },
    {
      "inputs": [
        {
          "internalType": "address",
          "name": "account",
          "type": "address"
        }
      ],
      "name": "getBalance",
      "outputs": [
        {
          "internalType": "uint256",
          "name": "",
          "type": "uint256"
        }
      ],
      "stateMutability": "view",
      "type": "function"
    },
    {
      "inputs": [
        {
          "internalType": "string",
          "name": "newName",
          "type": "string"
        }
      ],
      "name": "setAccountName",
      "outputs": [],
      "stateMutability": "nonpayable",
      "type": "function"
    },
    {
      "inputs": [
        {
          "internalType": "uint256",
          "name": "amount",
          "type": "uint256"
        }
      ],
      "name": "withdraw",
      "outputs": [],
      "stateMutability": "nonpayable",
      "type": "function"
    }
  ],
  "bytecode": "0x608060405234801561001057600080fd5b50610d37806100206000396000f3fe60806040526004361061004a5760003560e01c80632e1a7d4d1461004f5780632e95adad14610078578063d0e30db0146100a1578063d989c8db146100ab578063f8b2cb4f146100e8575b600080fd5b34801561005b57600080fd5b506100766004803603810190610071919061057c565b610125565b005b34801561008457600080fd5b5061009f600480360381019061009a91906106ef565b610293565b005b6100a9610331565b005b3480156100b757600080fd5b506100d260048036038101906100cd9190610796565b610419565b6040516100df9190610842565b60405180910390f35b3480156100f457600080fd5b5061010f600480360381019061010a9190610796565b6104ea565b60405161011c9190610873565b60405180910390f35b806000803373ffffffffffffffffffffffffffffffffffffffff1673ffffffffffffffffffffffffffffffffffffffff1681526020019081526020016000205410156101a6576040517f08c379a000000000000000000000000000000000000000000000000000000000815260040161019d906108da565b60405180910390fd5b806000803373ffffffffffffffffffffffffffffffffffffffff1673ffffffffffffffffffffffffffffffffffffffff16815260200190815260200160002060008282546101f49190610929565b925050819055503373ffffffffffffffffffffffffffffffffffffffff166108fc829081150290604051600060405180830381858888f19350505050158015610241573d6000803e3d6000fd5b503373ffffffffffffffffffffffffffffffffffffffff167f884edad9ce6fa2440d8a54cc123490eb96d2768479d49ff9c7366125a9424364826040516102889190610873565b60405180910390a250565b80600160003373ffffffffffffffffffffffffffffffffffffffff1673ffffffffffffffffffffffffffffffffffffffff16815260200190815260200160002090816102df9190610b69565b503373ffffffffffffffffffffffffffffffffffffffff167f3b0a43ccc1ccd1c76ebb1a8d998fdfe1ded3766582dbbbcdda83889170bec53d826040516103269190610842565b60405180910390a250565b60003411610374576040517f08c379a000000000000000000000000000000000000000000000000000000000815260040161036b90610cad565b60405180910390fd5b346000803373ffffffffffffffffffffffffffffffffffffffff1673ffffffffffffffffffffffffffffffffffffffff16815260200190815260200160002060008282546103c29190610ccd565b925050819055503373ffffffffffffffffffffffffffffffffffffffff167fe1fffcc4923d04b559f4d29a8bfc6cda04eb5b0d3c460751c2402c5c5cc9109c3460405161040f9190610873565b60405180910390a2565b6060600160008373ffffffffffffffffffffffffffffffffffffffff1673ffffffffffffffffffffffffffffffffffffffff16815260200190815260200160002080546104659061098c565b80601f01602080910402602001604051908101604052809291908181526020018280546104919061098c565b80156104de5780601f106104b3576101008083540402835291602001916104de565b820191906000526020600020905b8154815290600101906020018083116104c157829003601f168201915b50505050509050919050565b60008060008373ffffffffffffffffffffffffffffffffffffffff1673ffffffffffffffffffffffffffffffffffffffff168152602001908152602001600020549050919050565b6000604051905090565b600080fd5b600080fd5b6000819050919050565b61055981610546565b811461056457600080fd5b50565b60008135905061057681610550565b92915050565b6000602082840312156105925761059161053c565b5b60006105a084828501610567565b91505092915050565b600080fd5b600080fd5b6000601f19601f8301169050919050565b7f4e487b7100000000000000000000000000000000000000000000000000000000600052604160045260246000fd5b6105fc826105b3565b810181811067ffffffffffffffff8211171561061b5761061a6105c4565b5b80604052505050565b600061062e610532565b905061063a82826105f3565b919050565b600067ffffffffffffffff82111561065a576106596105c4565b5b610663826105b3565b9050602081019050919050565b82818337600083830152505050565b600061069261068d8461063f565b610624565b9050828152602081018484840111156106ae576106ad6105ae565b5b6106b9848285610670565b509392505050565b600082601f8301126106d6576106d56105a9565b5b81356106e684826020860161067f565b91505092915050565b6000602082840312156107055761070461053c565b5b600082013567ffffffffffffffff81111561072357610722610541565b5b61072f848285016106c1565b91505092915050565b600073ffffffffffffffffffffffffffffffffffffffff82169050919050565b600061076382610738565b9050919050565b61077381610758565b811461077e57600080fd5b50565b6000813590506107908161076a565b92915050565b6000602082840312156107ac576107ab61053c565b5b60006107ba84828501610781565b91505092915050565b600081519050919050565b600082825260208201905092915050565b60005b838110156107fd5780820151818401526020810190506107e2565b60008484015250505050565b6000610814826107c3565b61081e81856107ce565b935061082e8185602086016107df565b610837816105b3565b840191505092915050565b6000602082019050818103600083015261085c8184610809565b905092915050565b61086d81610546565b82525050565b60006020820190506108886000830184610864565b92915050565b7f496e73756666696369656e742062616c616e6365000000000000000000000000600082015250565b60006108c46014836107ce565b91506108cf8261088e565b602082019050919050565b600060208201905081810360008301526108f3816108b7565b9050919050565b7f4e487b7100000000000000000000000000000000000000000000000000000000600052601160045260246000fd5b600061093482610546565b915061093f83610546565b9250828203905081811115610957576109566108fa565b5b92915050565b7f4e487b7100000000000000000000000000000000000000000000000000000000600052602260045260246000fd5b600060028204905060018216806109a457607f821691505b6020821081036109b7576109b661095d565b5b50919050565b60008190508160005260206000209050919050565b60006020601f8301049050919050565b600082821b905092915050565b600060088302610a1f7fffffffffffffffffffffffffffffffffffffffffffffffffffffffffffffffff826109e2565b610a2986836109e2565b95508019841693508086168417925050509392505050565b6000819050919050565b6000610a66610a61610a5c84610546565b610a41565b610546565b9050919050565b6000819050919050565b610a8083610a4b565b610a94610a8c82610a6d565b8484546109ef565b825550505050565b600090565b610aa9610a9c565b610ab4818484610a77565b505050565b5b81811015610ad857610acd600082610aa1565b600181019050610aba565b5050565b601f821115610b1d57610aee816109bd565b610af7846109d2565b81016020851015610b06578190505b610b1a610b12856109d2565b830182610ab9565b50505b505050565b600082821c905092915050565b6000610b4060001984600802610b22565b1980831691505092915050565b6000610b598383610b2f565b9150826002028217905092915050565b610b72826107c3565b67ffffffffffffffff811115610b8b57610b8a6105c4565b5b610b95825461098c565b610ba0828285610adc565b600060209050601f831160018114610bd35760008415610bc1578287015190505b610bcb8582610b4d565b865550610c33565b601f198416610be1866109bd565b60005b82811015610c0957848901518255600182019150602085019450602081019050610be4565b86831015610c265784890151610c22601f891682610b2f565b8355505b6001600288020188555050505b505050505050565b7f4465706f73697420616d6f756e74206d7573742062652067726561746572207460008201527f68616e2030000000000000000000000000000000000000000000000000000000602082015250565b6000610c976025836107ce565b9150610ca282610c3b565b604082019050919050565b60006020820190508181036000830152610cc681610c8a565b9050919050565b6000610cd882610546565b9150610ce383610546565b9250828201905080821115610cfb57610cfa6108fa565b5b9291505056fea2646970667358221220ae58651fd23212981c7d2185498db8382bae8ae336cde6112c7cafeab8bf10e064736f6c63430008110033",
  "linkReferences": {},
  "deployedLinkReferences": {}
}